:020000040800F2
:1000000088090020DD010008C1380008890C0008BB
:10001000BD3800080D0700088741000800000000F7
:10002000000000000000000000000000293B000864
:100030002709000800000000B93900083D3C00080D
:10004000F7010008F7010008F7010008F7010008B0
:10005000F7010008F7010008F7010008F7010008A0
:10006000F7010008F7010008F70100081107000870
:10007000F7010008F7010008F7010008F701000880
:10008000F7010008F7010008F7010008F701000870
:10009000F7010008F7010008F7010008F701000860
:1000A000F7010008F7010008F7010008F701000850
:1000B000F7010008F7010008A13C0008F70100085B
:1000C000F7010008F7010008F7010008F701000830
:1000D000F7010008653F0008F7010008F701000874
:1000E000F7010008F7010008F7010008F701000810
:1000F000F7010008F7010008F7010008F701000800
:10010000F7010008F7010008F7010008F7010008EF
:10011000F7010008F7010008F7010008F7010008DF
:10012000F7010008F7010008F7010008F7010008CF
:1001300000F002F800F042F80AA090E8000C8244B7
:100140008344AAF10107DA4501D100F037F8AFF294
:10015000090EBAE80F0013F0010F18BFFB1A43F0A5
:10016000010318471C4700003C470000103A24BF19
:1001700078C878C1FAD8520724BF30C830C144BF0C
:1001800004680C607047000000230024002500264E
:10019000103A28BF78C1FBD8520728BF30C148BFEA
:1001A0000B607047642900F07B80782900F0B480F0
:1001B000002070471FB51FBD10B510BD00F064F9D9
:1001C0001146FFF7F7FF04F0EBF800F082F903B4F3
:1001D000FFF7F2FF03BC03F0D8FF00000948804797
:1001E00009480047FEE7FEE7FEE7FEE7FEE7FEE719
:1001F000FEE7FEE7FEE7FEE704480549054A064B31
:1002000070470000413C00083101000888030020CD
:10021000880900208805002088050020704700001C
:100220000FB4044910B503AA029800F0FFF810BCFF
:100230005DF814FB380000202DE9F0410E4604461D
:10024000002020622046E168884730B3252805D089
:10025000D4E901219047206A401CF2E7E16820467A
:1002600000278847050018D0A5F14100192802D8B9
:1002700020354FF400673246294620462760FFF7B5
:1002800091FF40B1012804D0F61D26F0070608367C
:10029000D8E7361DD6E72846DAE7206ABDE8F081C0
:1002A0002DE9F0410646002410687529314616A54F
:1002B00010D0AFF30080002802DA404213A507E017
:1002C00031688A0701D512A502E0490704D511A5B6
:1002D000012401E0AFF3008000210A2206F1240787
:1002E00009E0B0FBF2FCB0FBF2F302FB1C00303083
:1002F00078541846491C0028F3D123462A46304634
:10030000BDE8F04100F038B8000000002D0000000A
:100310002B0000002000000070B504460D46214669
:100320001068AFF300802188090502D50F4A7A448E
:1003300002E00E4A7A440E32002104F1240305E063
:1003400000F00F060009965D5E54491C0028F7D1A5
:1003500020780023000704D5702D02D009B10223B4
:1003600011322046BDE8704000F006B82645000076
:1003700070477047704770472DE9F0470D46994622
:100380009246044600F124080168880604D5E06915
:1003900021F01001216000E00120A84201DD471B8F
:1003A00000E00027A1697A1902EB0900081AA06190
:1003B0002078C00602D42046AFF30080002608E073
:1003C000D4E901211AF806009047206A401C761CE7
:1003D00020624E45F4DB2078C0060AD52046AFF3F4
:1003E000008006E0D4E9012130209047206A401CBB
:1003F0002062381EA7F10107F4DC07E0D4E90121EF
:1004000018F805009047206A401C2062281EA5F1BC
:100410000105F3DC2046AFF300802078000602D50A
:100420000220BDE8F0870120FBE70000074B70B514
:100430000D467B4400F011F80446284600F020F8F1
:1004400010B14FF0FF3070BD204670BD4F3F00002F
:1004500001694A1C02610878704700B58FB0CDE988
:1004600001310021059105497944CDE90310114678
:100470006846FFF7E1FE0FB000BD0000E5FFFFFF9B
:10048000007B00F080007047754600F02BF8AE4608
:1004900005006946534620F00700854618B020B590
:1004A000FFF7AAFEBDE820404FF000064FF000071E
:1004B0004FF000084FF0000B21F00701AC46ACE80C
:1004C000C009ACE8C009ACE8C009ACE8C0098D4679
:1004D000704710B50446AFF300802046BDE81040D9
:1004E000FFF775BE004870472803002021B18268DD
:1004F00042F00102826003E0826822F00102826021
:10050000704721B1826842F48072826003E08268A1
:1005100022F480728260704710B50446124884420B
:1005200008D10121401503F085FA0021601503F080
:1005300081FA17E00D48844208D10121001503F02B
:1005400079FA0021201503F075FA0BE0084884427F
:1005500008D10121C80303F06DFA00214FF40040D7
:1005600003F068FA10BD000000240140002801409B
:10057000003C014021B1826842F48012826003E0B5
:10058000826822F4801282607047000008B5012161
:10059000042003F03FFA0220ADF8000000208DF89F
:1005A000030003208DF802006946024800F0DDFADE
:1005B00008BD000000080140014600208A6802F0E2
:1005C00004020AB1012000E000207047014600202B
:1005D0008A6802F008020AB1012000E0002070479A
:1005E00030B502460020002350680F4C20400D79A2
:1005F0000C6844EA05242043506090680B4C20406E
:10060000D1E902542C434D7944EA450420439060DB
:10061000D06A20F470000C7C641EE4B2234340EAEC
:100620000350D06230BD0000FFFEF0FFFDF7F1FF88
:10063000F0B504460D4600200021092D11DDE068CB
:10064000A5F10A0606EB4607072606FA07F18843D6
:10065000A5F10A0606EB460603FA06F10843E06038
:100660000CE0206905EB4507072606FA07F18843E9
:1006700005EB450603FA06F108432061072A0FDA65
:10068000606B561E06EB86071F2606FA07F18843A5
:10069000561E06EB860605FA06F10843606322E063
:1006A0000D2A0FDA206BD61F06EB86071F2606FAE7
:1006B00007F18843D61F06EB860605FA06F10843C4
:1006C000206310E0E06AA2F10D0606EB86071F2604
:1006D00006FA07F18843A2F10D0606EB860605FA35
:1006E00006F10843E062F0BD816841F008018160D5
:1006F0007047816841F00401816070470146B1F59F
:10070000FA6F01DD012000E00020704700BFFEE726
:1007100010B5022000F0CAF828B101200249087083
:10072000022000F003F810BD0900002000F0805105
:1007300011B10349086001E00249486070470000B8
:10074000040402400000024021B1026842F00102AC
:10075000026004E002684FF6FE731A4002607047C0
:1007600001684FF6FE721140016000210160416096
:100770008160C1604B49884208D14A4908394968BB
:1007800041F00F01474A083A51608AE04549143167
:10079000884208D143490839496841F0F001414A8B
:1007A000083A51607DE03F492831884208D13D49EF
:1007B0000839496841F470613A4A083A516070E07A
:1007C00038493C31884208D136490839496841F4F2
:1007D0007041344A083A516063E0324950318842EE
:1007E00008D130490839496841F470212D4A083A46
:1007F000516056E02B496431884208D129490839B3
:10080000496841F47001274A083A516049E0254996
:100810007831884208D123490839496841F070612C
:10082000204A083A51603CE01F49884206D1011F26
:10083000096841F00F01021F116032E01A491431BA
:10084000884208D11849091F096841F0F001164A89
:10085000121F116025E014492831884208D112493D
:10086000091F096841F470610F4A121F116018E0F6
:100870000D493C31884208D10B49091F096841F4F0
:100880007041094A121F11600BE00749503188423C
:1008900007D10549091F096841F47021024A121F56
:1008A0001160704708000240080402400146002021
:1008B000002201F0805313B1054B1A6801E0054B8B
:1008C0001A6802EA01030BB1012000E00020704722
:1008D00000040240000002401AB103680B430360A9
:1008E00002E003688B430360704710B50022026882
:1008F00047F6F0739A430C6A8B6823430C692343D1
:100900004C6923438C692343CC6923434C6A2343BA
:100910008C6A23431A430260CB6843600B68836090
:100920004B68C36010BD704710B503F09BFA4020C0
:1009300003F0E6FA03F048FA03F0BAFA03F092FA89
:10094000C02003F0DDFA03F03FFA002460E03748EE
:10095000005D20B93F2003F0D3FA03F035FA3348A5
:10096000005D012804D1062003F0CAFA03F02CFA36
:100970002E48005D022804D15B2003F0C1FA03F089
:1009800023FA2A48005D032804D14F2003F0B8FA67
:1009900003F01AFA2548005D042804D1662003F00C
:1009A000AFFA03F011FA2148005D052804D16D204B
:1009B00003F0A6FA03F008FA1C48005D062804D1EB
:1009C0007D2003F09DFA03F0FFF91848005D072829
:1009D00003D103F095FA03F0F7F91448005D0828F5
:1009E00004D17F2003F08CFA03F0EEF90F48005D8C
:1009F000092804D16F2003F083FA03F0E5F90B48CE
:100A0000005D492803D103F07BFA03F0DDF9641C93
:100A1000042C9CDB03F04CFA03F024FA8F2003F043
:100A20006FFA03F0D1F903F043FA10BD0000002083
:100A300010B502460B460020002105E05C18145D4D
:100A400044EA4004E0B2491C0429F7DB10BD000071
:100A500051B18200A2F1C042126842F0010382004B
:100A6000A2F1C042136009E08200A2F1C042126804
:100A7000034B1A408300A3F1C0431A607047000083
:100A8000FEFF0F00D0E901121143C2681143026951
:100A900011434269114382691143C2691143026AD9
:100AA0001143426A1143826A1143C26A1143026BC5
:100AB000114302689200A2F1C042116081680829C6
:100AC0000BD101688900A1F1C041096841F04002E1
:100AD00001688900A1F1C0410A60416B0968426B5D
:100AE000526841EA0211426B926841EA0221426B6C
:100AF000928941EA0241426B128A41EA0251426BF9
:100B0000127D41EA0261426B926911430268521CF4
:100B10009200A2F1C0421160C16AB1F5804F1BD1B1
:100B2000816B0968826B526841EA0211826B92689C
:100B300041EA0221826B128A41EA0251826B127DE4
:100B400041EA0261826B9269114302689200A2F14C
:100B5000C042C2F8041107E06FF0704201688900DA
:100B6000A1F1C041C1F8042170472DE9F0410246CE
:100B700000250026002000230024002791F803C050
:100B80000CF00F0591F803C00CF0100CBCF1000F35
:100B900003D091F802C04CEA050591F800C0BCF101
:100BA000000F31D0146800202BE04FF0010C0CFA3C
:100BB00000F3B1F800C00CEA03069E4220D1830086
:100BC0004FF00F0C0CFA03F7BC4305FA03FC4CEA98
:100BD000040491F803C0BCF1280F06D14FF0010CBA
:100BE0000CFA00FCC2F814C00AE091F803C0BCF192
:100BF000480F05D14FF0010C0CFA00FCC2F810C0F0
:100C0000401C0828D1D31460B1F800C0BCF1FF0F1C
:100C100034DD546800202EE000F1080C4FF001088C
:100C200008FA0CF3B1F800C00CEA03069E4221D189
:100C300083004FF00F0C0CFA03F7BC4305FA03FCDA
:100C40004CEA040491F803C0BCF1280F05D100F16F
:100C5000080C08FA0CF8C2F8148091F803C0BCF133
:100C6000480F07D100F1080C4FF0010808FA0CF802
:100C7000C2F81080401C0828CED35460BDE8F08133
:100C8000416170470161704700BFFEE770B50446DF
:100C9000002609480588408845430021084602F09F
:100CA00037FD02F0D1FD00BF02E004480480761C4D
:100CB000AE42FAD370BD0000180300200008006C9B
:100CC00010B5044649488471002C45D1F0204749AD
:100CD00008804FF4A07048800846808845F2105183
:100CE000884210D14FF43050404908814FF42850C9
:100CF00048814FF42C5088814FF4F07008804FF4F5
:100D0000487048801AE03948808841F6631188426B
:100D10000DD12C20354908812B2048812A2088813B
:100D20004FF4F07008804FF44870488006E02C20A3
:100D30002E4908812A2048812B2088812B488088D1
:100D400045F2103188424CD14FF4A07027490880F9
:100D50004FF4F070488044E04FF4A07023490880BD
:100D6000F02048800846808845F21051884210D112
:100D70004FF430501D4908814FF4285048814FF4FA
:100D80002C5088814FF4487008804FF4F0704880F0
:100D90001AE01648808841F6631188420DD12C2054
:100DA000124908812A2048812B2088814FF44870FD
:100DB00008804FF4F070488006E02C200B49088131
:100DC0002A2048812B2088810848808845F21031EC
:100DD000884206D14FF4F070044908804FF4A070A7
:100DE0004880002002F07AFB10BD000018030020AC
:100DF00000B59FB00121080202F0ECFD01214FF483
:100E0000B47002F007FE0120ADF8780010208DF8D4
:100E10007B0003208DF87A001EA9FE48FFF7A5FE8F
:100E20004CF23370ADF8780018208DF87B00032069
:100E30008DF87A001EA9F848FFF797FE4FF68070EC
:100E4000ADF8780018208DF87B0003208DF87A002B
:100E50001EA9F248FFF789FE41F20100ADF87800C3
:100E600018208DF87B0003208DF87A001EA9EC482D
:100E7000FFF77BFE01200890002009900F200A90C8
:100E800000200B900C900D900E900190029003208A
:100E900003900020049005900690079006200F9084
:100EA00000201090119010201290002013901590A7
:100EB0001490169017904FF48050189000201990BD
:100EC0004FF480401A9000201B9008A81C9001A8A5
:100ED0001D900FA8FFF7D6FD01210620FFF7B8FDF2
:100EE000322003F003FAD32002F0A8FC02F0C2FA89
:100EF000CC49888002F0BEFACA49888002F0BAFA6A
:100F0000C8498880084680884FF6FF7101EA0020B2
:100F1000C449888002F0AEFAC24989880843C149B1
:100F200088800846808849F2413188427DD004207B
:100F300002F084FC02F09EFABA49888002F09AFA24
:100F4000B849888002F096FAB649888008468088B9
:100F50004FF6FF7101EA0020B249888002F08AFA58
:100F6000B04989880843AF4988800846808848F29C
:100F70005251884203D147F28970AA498880A94812
:100F8000808847F289718842D0D0D42002F056FC84
:100F900002F070FAA349888002F06CFAA1498880B7
:100FA00002F068FA9F498880084680884FF6FF71F2
:100FB00001EA00209B49888002F05CFA99498988FF
:100FC0000843984988800846808845F21031884255
:100FD00062D055214FF4704002F040FCAA214FF23C
:100FE000010002F03BFC52214FF2020002F036FCFD
:100FF00008214FF2030002F031FC01214FF20400FE
:1010000002F02CFC4FF4454002F018FC02F032FADA
:1010100084498880084680884FF6FF7101EA0020E5
:10102000804988804CF2015000E035E002F006FC77
:1010300002F020FA7B49898808437A498880052094
:1010400003F054F97748808845F21051884223D044
:10105000A12002F0F3FB02F00DFA7249888002F041
:1010600009FA70498880084680884FF6FF7101EAC6
:1010700000206C49888002F0FDF96A49898808439C
:10108000684988800846808845F26171884203D1AA
:1010900041F66310634988806248818862A0FFF747
:1010A000BFF86048808849F2413188427ED1CF2024
:1010B00002F0C4FB002002F0BBFBC12002F0B8FB31
:1010C000302002F0B5FBED2002F0B8FB642002F006
:1010D000AFFB032002F0ACFB122002F0A9FB812041
:1010E00002F0A6FBE82002F0A9FB852002F0A0FB9D
:1010F000102002F09DFB7A2002F09AFBCB2002F038
:101100009DFB392002F094FB2C2002F091FB002083
:1011100002F08EFB342002F08BFB022002F088FBF1
:10112000F72002F08BFB202002F082FBEA2002F085
:1011300085FB002002F07CFB002002F079FBC02040
:1011400002F07CFB1B2002F073FBC12002F076FB57
:10115000012002F06DFBC52002F070FB302002F090
:1011600067FB302002F064FBC72002F067FBB7206A
:1011700002F05EFB362002F061FB482002F058FBD3
:101180003A2002F05BFB552002F052FBB12002F046
:1011900055FB002002F04CFB1A2002F049FBB62060
:1011A00002F04CFB0A2002F043FB00E0ABE0A2207F
:1011B00002F03EFBF22002F041FB002002F038FB7F
:1011C000262002F03BFB012002F032FBE02002F07F
:1011D00035FB0F2002F02CFB2A2002F029FB2820EF
:1011E00002F026FB082002F023FB0E2002F020FB79
:1011F000082002F01DFB542002F01AFBA92002F087
:1012000017FB432002F014FB0A2002F011FB0F2011
:1012100012E00000000C01400014014000180140E1
:101220000020014018030020204C43442049443A48
:1012300025780D0A0000000002F0FAFA002002F002
:10124000F7FA002002F0F4FA002002F0F1FA002090
:1012500002F0EEFAE12002F0F1FA002002F0E8FAE2
:10126000152002F0E5FA172002F0E2FA072002F05A
:10127000DFFA112002F0DCFA062002F0D9FA2B2066
:1012800002F0D6FA562002F0D3FA3C2002F0D0FA4F
:10129000052002F0CDFA102002F0CAFA0F2002F069
:1012A000C7FA3F2002F0C4FA3F2002F0C1FA0F2033
:1012B00002F0BEFA2B2002F0C1FA002002F0B8FAC8
:1012C000002002F0B5FA012002F0B2FA3F2002F04D
:1012D000AFFA2A2002F0B2FA002002F0A9FA0020A8
:1012E00002F0A6FA002002F0A3FAEF2002F0A0FA22
:1012F000112002F0A3FA782002F0F8FF292002F072
:101300009DFA02F0A6B8FE48808847F289718842AB
:101310007ED1112002F092FA782002F0E7FF362009
:1013200002F08CFA002002F083FA3A2002F086FAEA
:10133000052002F07DFAB22002F080FA0C2002F0C3
:1013400077FA0C2002F074FA002002F071FA3320D0
:1013500002F06EFA332002F06BFAB72002F06EFA58
:10136000352002F065FABB2002F068FA322002F064
:101370005FFAC02002F062FA0C2002F059FAC22093
:1013800002F05CFA012002F053FAC32002F056FA90
:10139000102002F04DFAC42002F050FA202002F092
:1013A00047FAC62002F04AFA0F2002F041FAD02094
:1013B00002F044FAA42002F03BFAA12002F038FA2D
:1013C000E02002F03BFAD02002F032FA002002F0D6
:1013D0002FFA022002F02CFA072002F029FA0A2044
:1013E00002F026FA282002F023FA322002F020FA36
:1013F000442002F01DFA422002F01AFA062002F000
:1014000017FA0E2002F014FA122002F011FA00E08E
:1014100054E0142002F00CFA172002F009FAE1203F
:1014200002F00CFAD02002F003FA002002F000FAD9
:10143000022002F0FDF9072002F0FAF90A2002F07A
:10144000F7F9282002F0F4F9312002F0F1F95420E4
:1014500002F0EEF9472002F0EBF90E2002F0E8F975
:101460001C2002F0E5F9172002F0E2F91B2002F03F
:10147000DFF91E2002F0DCF92A2002F0DFF900205B
:1014800002F0D6F9002002F0D3F9002002F0D0F9E2
:10149000EF2002F0CDF92B2002F0D0F9002002F06D
:1014A000C7F9002002F0C4F9012002F0C1F93F2081
:1014B00002F0BEF9292002F0C1F922E790488088A5
:1014C00045F21031884240F07C87ED2002F0B6F9F9
:1014D000012002F0ADF9FE2002F0AAF9EE2002F0A0
:1014E000ADF9DE2002F0A4F9212002F0A1F9F120EB
:1014F00002F0A4F9012002F09BF9DF2002F09EF92E
:10150000102002F095F9C42002F098F98F2002F023
:101510008FF9C62002F092F9002002F089F9E2204A
:1015200002F086F9E22002F083F9E22002F080F96D
:10153000BF2002F083F9AA2002F07AF9B02002F06D
:101540007DF90D2002F074F9002002F071F90D20F0
:1015500002F06EF9002002F06BF9112002F068F938
:10156000002002F065F9192002F062F9002002F073
:101570005FF9212002F05CF9002002F059F92D20DA
:1015800002F056F9002002F053F93D2002F050F924
:10159000002002F04DF95D2002F04AF9002002F02F
:1015A00047F95D2002F044F9002002F041F9B12032
:1015B00002F044F9802002F03BF9002002F038F9F3
:1015C0008B2002F035F9002002F032F9962002F06B
:1015D0002FF9002002F02CF9B22002F02FF90020A0
:1015E00002F026F9002002F023F9022002F020F98F
:1015F000002002F01DF9032002F01AF9002002F089
:1016000017F9B32002F01AF9002002F011F90020B6
:1016100002F00EF9002002F00BF9002002F008F9A8
:10162000002002F005F9002002F002F9002002F08B
:10163000FFF8002002F0FCF8002002F0F9F800208A
:1016400002F0F6F8002002F0F3F8002002F0F0F8C3
:10165000002002F0EDF8002002F0EAF8002002F08D
:10166000E7F8002002F0E4F8002002F0E1F80020A2
:1016700002F0DEF8002002F0DBF8002002F0D8F8DB
:10168000002002F0D5F8002002F0D2F8002002F08D
:10169000CFF8002002F0CCF8B42002F0CFF88B2075
:1016A00002F0C6F8002002F0C3F8962002F0C0F85D
:1016B000002002F0BDF8A12002F0BAF8002002F0EC
:1016C000B7F8B52002F0BAF8022002F0B1F8002015
:1016D00002F0AEF8032002F0ABF8002002F0A8F808
:1016E000042002F0A5F8002002F0A2F8B62002F0D3
:1016F000A5F8002002F09CF8002002F099F801E023
:1017000018030020B72002F099F8002002F090F8AA
:10171000002002F08DF83F2002F08AF8002002F04D
:1017200087F85E2002F084F8002002F081F864203F
:1017300002F07EF8002002F07BF88C2002F078F8AE
:10174000002002F075F8AC2002F072F8002002F0E0
:101750006FF8DC2002F06CF8002002F069F87020CD
:1017600002F066F8002002F063F8902002F060F8C2
:10177000002002F05DF8EB2002F05AF8002002F0A1
:1017800057F8DC2002F054F8002002F051F8B8209D
:1017900002F054F8002002F04BF8002002F048F864
:1017A000002002F045F8002002F042F8002002F08C
:1017B0003FF8002002F03CF8002002F039F8002049
:1017C00002F036F8BA2002F039F8242002F030F89E
:1017D000002002F02DF8002002F02AF8002002F08C
:1017E00027F8C12002F02AF8202002F021F800207A
:1017F00002F01EF8542002F01BF8002002F018F846
:10180000FF2002F015F8002002F012F8C22002F0CA
:1018100015F80A2002F00CF8002002F009F8042064
:1018200002F006F8002002F003F8C32002F006F8E8
:101830003C2001F0FDFF002001F0FAFF3A2001F00A
:10184000F7FF002001F0F4FF392001F0F1FF002044
:1018500001F0EEFF372001F0EBFF002001F0E8FF80
:101860003C2001F0E5FF002001F0E2FF362001F00E
:10187000DFFF002001F0DCFF322001F0D9FF002063
:1018800001F0D6FF2F2001F0D3FF002001F0D0FFA0
:101890002C2001F0CDFF002001F0CAFF292001F02B
:1018A000C7FF002001F0C4FF262001F0C1FF002087
:1018B00001F0BEFF242001F0BBFF002001F0B8FFC3
:1018C000242001F0B5FF002001F0B2FF232001F039
:1018D000AFFF002001F0ACFF3C2001F0A9FF002089
:1018E00001F0A6FF362001F0A3FF002001F0A0FFC9
:1018F000322001F09DFF002001F09AFF2F2001F01F
:1019000097FF002001F094FF2C2001F091FF0020B0
:1019100001F08EFF292001F08BFF002001F088FFED
:10192000262001F085FF002001F082FF242001F035
:101930007FFF002001F07CFF242001F079FF0020D0
:1019400001F076FF232001F073FF002001F070FF0B
:10195000C42001F073FF622001F06AFF002001F053
:1019600067FF052001F064FF002001F061FF842083
:1019700001F05EFF002001F05BFFF02001F058FF56
:10198000002001F055FF182001F052FF002001F067
:101990004FFFA42001F04CFF002001F049FF182068
:1019A00001F046FF002001F043FF502001F040FF0E
:1019B000002001F03DFF0C2001F03AFF002001F073
:1019C00037FF172001F034FF002001F031FF952090
:1019D00001F02EFF002001F02BFFF32001F028FF83
:1019E000002001F025FFE62001F022FF002001F099
:1019F0001FFFC52001F022FF322001F019FF002057
:101A000001F016FF442001F013FF002001F010FF49
:101A1000652001F00DFF002001F00AFF762001F0A3
:101A200007FF002001F004FF882001F001FF0020E3
:101A300001F0FEFEC62001F001FF202001F0F8FEBB
:101A4000002001F0F5FE172001F0F2FE002001F069
:101A5000EFFE012001F0ECFE002001F0E9FEC720BE
:101A600001F0ECFE002001F0E3FE002001F0E0FEBA
:101A7000002001F0DDFE002001F0DAFEC82001F0B8
:101A8000DDFE002001F0D4FE002001F0D1FE002098
:101A900001F0CEFE002001F0CBFEC92001F0CEFE09
:101AA000002001F0C5FE002001F0C2FE002001F080
:101AB000BFFE002001F0BCFE002001F0B9FE0020B6
:101AC00001F0B6FE002001F0B3FE002001F0B0FEF0
:101AD000002001F0ADFE002001F0AAFE002001F080
:101AE000A7FE002001F0A4FE002001F0A1FE0020CE
:101AF00001F09EFE002001F09BFE002001F098FE08
:101B0000E02001F09BFE162001F092FE002001F083
:101B10008FFE1C2001F08CFE002001F089FE2120A8
:101B200001F086FE002001F083FE362001F080FEE9
:101B3000002001F07DFE462001F07AFE002001F039
:101B400077FE522001F074FE002001F071FE642047
:101B500001F06EFE002001F06BFE7A2001F068FEBD
:101B6000002001F065FE8B2001F062FE002001F0F4
:101B70005FFE992001F05CFE002001F059FEA820D4
:101B800001F056FE002001F053FEB92001F050FE96
:101B9000002001F04DFEC42001F04AFE002001F0BB
:101BA00047FECA2001F044FE002001F041FED22091
:101BB00001F03EFE002001F03BFED92001F038FE8E
:101BC000002001F035FEE02001F032FE002001F09F
:101BD0002FFEF32001F02CFE002001F029FEE12071
:101BE00001F02CFE162001F023FE002001F020FE63
:101BF0001C2001F01DFE002001F01AFE222001F041
:101C000017FE002001F014FE362001F011FE002026
:101C100001F00EFE452001F00BFE002001F008FE51
:101C2000522001F005FE002001F002FE642001F0C8
:101C3000FFFD002001F0FCFD7A2001F0F9FD0020FD
:101C400001F0F6FD8B2001F0F3FD002001F0F0FD26
:101C5000992001F0EDFD002001F0EAFDA82001F03F
:101C6000E7FD002001F0E4FDB92001F0E1FD0020D6
:101C700001F0DEFDC42001F0DBFD002001F0D8FD05
:101C8000CA2001F0D5FD002001F0D2FDD22001F0E4
:101C9000CFFD002001F0CCFDD82001F0C9FD0020CF
:101CA00001F0C6FDE02001F0C3FD002001F0C0FD01
:101CB000F32001F0BDFD002001F0BAFDE22001F0AB
:101CC000BDFD052001F0B4FD002001F0B1FD0B20A9
:101CD00001F0AEFD002001F0ABFD1B2001F0A8FDDE
:101CE000002001F0A5FD342001F0A2FD002001F04C
:101CF0009FFD442001F09CFD002001F099FD4F2044
:101D000001F096FD002001F093FD612001F090FDAF
:101D1000002001F08DFD792001F08AFD002001F006
:101D200087FD882001F084FD002001F081FD9720CF
:101D300001F07EFD002001F07BFDA62001F078FD82
:101D4000002001F075FDB72001F072FD002001F0C8
:101D50006FFDC22001F06CFD002001F069FDC7207D
:101D600001F066FD002001F063FDD12001F060FD6F
:101D7000002001F05DFDD62001F05AFD002001F0A9
:101D800057FDDD2001F054FD002001F051FDF3204E
:101D900001F04EFD002001F04BFDE32001F04EFD6F
:101DA000052001F045FD002001F042FD0A2001F070
:101DB0003FFD002001F03CFD1C2001F039FD00201A
:101DC00001F036FD332001F033FD002001F030FD3D
:101DD000442001F02DFD002001F02AFD502001F0EB
:101DE00027FD002001F024FD622001F021FD0020EC
:101DF00001F01EFD782001F01BFD002001F018FD10
:101E0000882001F015FD002001F012FD972001F05F
:101E10000FFD002001F00CFDA62001F009FD0020BF
:101E200001F006FDB72001F003FD002001F000FDE8
:101E3000C22001F0FDFC002001F0FAFCC72001F0F7
:101E4000F7FC002001F0F4FCD12001F0F1FC0020AF
:101E500001F0EEFCD52001F0EBFC002001F0E8FCE5
:101E6000DD2001F0E5FC002001F0E2FCF32001F0B0
:101E7000DFFC002001F0DCFCE42001F0DFFC0120AD
:101E800001F0D6FC002001F0D3FC012001F0D0FCD1
:101E9000002001F0CDFC022001F0CAFC002001F07E
:101EA000C7FC2A2001F0C4FC002001F0C1FC3C204A
:101EB00001F0BEFC002001F0BBFC4B2001F0B8FC9F
:101EC000002001F0B5FC5D2001F0B2FC002001F023
:101ED000AFFC742001F0ACFC002001F0A9FC8420D0
:101EE00001F0A6FC002001F0A3FC932001F0A0FC6F
:101EF000002001F09DFCA22001F09AFC002001F0DE
:101F000097FCB32001F094FC002001F091FCBE206E
:101F100001F08EFC002001F08BFCC42001F088FC55
:101F2000002001F085FCCD2001F082FC002001F0B2
:101F30007FFCD32001F07CFC002001F079FCDD2047
:101F400001F076FC002001F073FCF32001F070FC3E
:101F5000002001F06DFCE52001F070FC002001F094
:101F600067FC002001F064FC002001F061FC00200F
:101F700001F05EFC022001F05BFC002001F058FC47
:101F8000292001F055FC002001F052FC3C2001F01A
:101F90004FFC002001F04CFC4B2001F049FC0020DC
:101FA00001F046FC5D2001F043FC002001F040FC04
:101FB000742001F03DFC002001F03AFC842001F087
:101FC00037FC002001F034FC932001F031FC0020AC
:101FD00001F02EFCA22001F02BFC002001F028FCD7
:101FE000B32001F025FC002001F022FCBE2001F00E
:101FF0001FFC002001F01CFCC42001F019FC002093
:1020000001F016FCCD2001F013FC002001F010FCC3
:10201000D32001F00DFC002001F00AFCDC2001F0CF
:1020200007FC002001F004FCF32001F001FC00207B
:1020300001F0FEFBE62001F001FC112001F0F8FBAD
:10204000002001F0F5FB342001F0F2FB002001F04C
:10205000EFFB562001F0ECFB002001F0E9FB7620BD
:1020600001F0E6FB002001F0E3FB772001F0E0FB4C
:10207000002001F0DDFB662001F0DAFB002001F01A
:10208000D7FB882001F0D4FB002001F0D1FB992080
:1020900001F0CEFB002001F0CBFBBB2001F0C8FB20
:1020A000002001F0C5FB992001F0C2FB002001F0E7
:1020B000BFFB662001F0BCFB002001F0B9FB5520FE
:1020C00001F0B6FB002001F0B3FB552001F0B0FB9E
:1020D000002001F0ADFB452001F0AAFB002001F03B
:1020E000A7FB432001F0A4FB002001F0A1FB44204A
:1020F00001F09EFB002001F09BFBE72001F09EFB1E
:10210000322001F095FB002001F092FB552001F0F8
:102110008FFB002001F08CFB762001F089FB002072
:1021200001F086FB662001F083FB002001F080FBBC
:10213000672001F07DFB002001F07AFB672001F0B1
:1021400077FB002001F074FB872001F071FB002079
:1021500001F06EFB992001F06BFB002001F068FBA1
:10216000BB2001F065FB002001F062FB992001F02B
:102170005FFB002001F05CFB772001F059FB0020A1
:1021800001F056FB442001F053FB002001F050FB0E
:10219000562001F04DFB002001F04AFB232001F006
:1021A00047FB002001F044FB332001F041FB0020FD
:1021B00001F03EFB452001F03BFB002001F038FB25
:1021C000E82001F03BFB002001F032FB002001F091
:1021D0002FFB992001F02CFB002001F029FB872028
:1021E00001F026FB002001F023FB882001F020FBFA
:1021F000002001F01DFB772001F01AFB002001F008
:1022000017FB662001F014FB002001F011FB882071
:1022100001F00EFB002001F00BFBAA2001F008FBEF
:10222000002001F005FBBB2001F002FB002001F0C3
:10223000FFFA992001F0FCFA002001F0F9FA66207B
:1022400001F0F6FA002001F0F3FA552001F0F0FA5F
:10225000002001F0EDFA552001F0EAFA002001F02B
:10226000E7FA442001F0E4FA002001F0E1FA44200A
:1022700001F0DEFA002001F0DBFA552001F0D8FA77
:10228000002001F0D5FAE92001F0D8FAAA2001F0E7
:10229000CFFA002001F0CCFA002001F0C9FA0020AA
:1022A00001F0C6FA002001F0C9FAAA2001F0C0FA34
:1022B000CF2001F0C3FA002001F0BAFA002001F0AB
:1022C000B7FA002001F0B4FA002001F0B1FA0020C2
:1022D00001F0AEFA002001F0ABFA002001F0A8FAFC
:1022E000002001F0A5FA002001F0A2FA002001F080
:1022F0009FFA002001F09CFA002001F099FA0020DA
:1023000001F096FA002001F093FA002001F090FA13
:10231000002001F08DFA002001F08AFAF02001F08F
:102320008DFA002001F084FA502001F081FA00209B
:1023300001F07EFA002001F07BFA002001F078FA2B
:10234000F32001F07BFA002001F072FAF92001F08D
:1023500075FA062001F06CFA102001F069FA2920C4
:1023600001F066FA002001F063FA3A2001F066FA03
:10237000552001F05DFA112001F060FA642001F0AF
:10238000B5FF292001F05AFA352001F057FA002054
:1023900001F04EFA512001F051FAFF2001F048FA05
:1023A000532001F04BFA2C2001F042FA552001F0A5
:1023B00045FA822001F03CFA2C2001F03FFA01F0AE
:1023C00048B8FE48808845F2105188427ED1552198
:1023D0004FF4704001F042FAAA214FF2010001F0DF
:1023E0003DFA52214FF2020001F038FA08214FF273
:1023F000030001F033FA01214FF2040001F02EFA3C
:102400000D214FF4304001F029FA0D214BF201006B
:1024100001F024FA0D214BF2020001F01FFA3421E1
:102420004FF4364001F01AFA34214BF2016001F00A
:1024300015FA34214BF2026001F010FA0D214FF42D
:10244000314001F00BFA0D214BF2011001F006FAB8
:102450000D214BF2021001F001FA34214FF4374004
:1024600001F0FCF934214BF2017001F0F7F934214D
:102470004BF2027001F0F2F900214FF4324001F00A
:10248000EDF900214BF2012001F0E8F900214BF2B7
:10249000022001F0E3F924214FF4384001F0DEF985
:1024A00024214BF6010001F0D9F924214BF602005A
:1024B00001F0D4F901214FF43F4001F0CFF90F2191
:1024C0004FF4334001F0CAF90F2100E0FEE34BF274
:1024D000013001F0C3F90F214BF2023001F0BEF9D7
:1024E00034214FF4394001F0B9F934214BF6011091
:1024F00001F0B4F934214BF6021001F0AFF90821D4
:102500004FF4354001F0AAF908214BF2015001F0D7
:10251000A5F908214BF2025001F0A0F903214FF474
:10252000424001F09BF924214FF43A4001F096F922
:1025300024214BF6012001F091F924214BF60220D1
:1025400001F08CF900214FF43C4001F087F978212B
:102550004BF6014001F082F900214BF6024001F0F8
:102560007DF900214FF43D4001F078F978214BF6D8
:10257000015001F073F900214BF6025001F06EF9A1
:1025800000214FF43E4001F069F964214BF60160EF
:1025900001F064F900214FF4514001F05FF933215B
:1025A0004DF2011001F05AF900214DF2021001F034
:1025B00055F934214DF2031001F050F900214DF28C
:1025C000041001F04BF93A214DF2051001F046F9E3
:1025D00000214DF2061001F041F94A214DF2071099
:1025E00001F03CF900214DF2081001F037F95C21AF
:1025F0004DF2091001F032F900214DF20A1001F0FC
:102600002DF981214DF20B1001F028F900214DF236
:102610000C1001F023F9A6214DF20D1001F01EF966
:1026200000214DF20E1001F019F9E5214DF20F10C5
:1026300001F014F901214DF2101001F00FF91321EE
:102640004DF2111001F00AF901214DF2121001F0C2
:1026500005F954214DF2131001F000F901214DF25A
:10266000141001F0FBF882214DF2151001F0F6F87C
:1026700001214DF2161001F0F1F8CA214DF21710A8
:1026800001F0ECF802214DF2181001F0E7F80021FA
:102690004DF2191001F0E2F802214DF21A1001F08A
:1026A000DDF801214DF21B1001F0D8F802214DF2A6
:1026B0001C1001F0D3F834214DF21D1001F0CEF8BA
:1026C00002214DF21E1001F0C9F867214DF21F10D2
:1026D00001F0C4F802214DF2201001F0BFF884216E
:1026E0004DF2211001F0BAF802214DF2221001F052
:1026F000B5F8A4214DF2231001F0B0F802214DF2FB
:10270000241001F0ABF8B7214DF2251001F0A6F826
:1027100002214DF2261001F0A1F8CF214DF2271031
:1027200001F09CF802214DF2281001F097F8DE210B
:102730004DF2291001F092F802214DF22A1001F019
:102740008DF8F2214DF22B1001F088F802214DF2A4
:102750002C1001F083F8FE214DF22D1001F07EF8CF
:1027600003214DF22E1001F079F810214DF22F10B7
:1027700001F074F803214DF2301001F06FF83321AD
:102780004DF2311001F06AF803214DF2321001F0E0
:1027900065F86D214DF2331001F060F800214FF41F
:1027A000524001F05BF833214DF2012001F056F860
:1027B00000214DF2022001F051F801E01803002041
:1027C00034214DF2032001F049F800214DF204209C
:1027D00001F044F83A214DF2052001F03FF80021C4
:1027E0004DF2062001F03AF84A214DF2072001F09F
:1027F00035F800214DF2082001F030F85C214DF24F
:10280000092001F02BF800214DF20A2001F026F8F2
:1028100081214DF20B2001F021F800214DF20C2016
:1028200001F01CF8A6214DF20D2001F017F800214F
:102830004DF20E2001F012F8E5214DF20F2001F0CB
:102840000DF801214DF2102001F008F813214DF28E
:10285000112001F003F801214DF2122000F0FEFFDB
:1028600054214DF2132000F0F9FF01214DF2142004
:1028700000F0F4FF82214DF2152000F0EFFF01215E
:102880004DF2162000F0EAFFCA214DF2172000F0A9
:10289000E5FF02214DF2182000F0E0FF00214DF28B
:1028A000192000F0DBFF02214DF21A2000F0D6FFC4
:1028B00001214DF21B2000F0D1FF02214DF21C201E
:1028C00000F0CCFF34214DF21D2000F0C7FF0221A3
:1028D0004DF21E2000F0C2FF67214DF21F2000F0D4
:1028E000BDFF02214DF2202000F0B8FF84214DF2FF
:1028F000212000F0B3FF02214DF2222000F0AEFFB4
:10290000A4214DF2232000F0A9FF02214DF2242042
:1029100000F0A4FFB7214DF2252000F09FFF022117
:102920004DF2262000F09AFFCF214DF2272000F033
:1029300095FF02214DF2282000F090FFDE214DF29C
:10294000292000F08BFF02214DF22A2000F086FFA3
:10295000F2214DF22B2000F081FF02214DF22C20BC
:1029600000F07CFFFE214DF22D2000F077FF0321C7
:102970004DF22E2000F072FF10214DF22F2000F0BA
:102980006DFF03214DF2302000F068FF33214DF23E
:10299000312000F063FF03214DF2322000F05EFF92
:1029A0006D214DF2332000F059FF00214FF45340C8
:1029B00000F054FF33214DF2013000F04FFF0021B1
:1029C0004DF2023000F04AFF34214DF2033000F0A6
:1029D00045FF00214DF2043000F040FF3A214DF256
:1029E000053000F03BFF00214DF2063000F036FFCD
:1029F0004A214DF2073000F031FF00214DF208303E
:102A000000F02CFF5C214DF2093000F027FF00217F
:102A10004DF20A3000F022FF81214DF20B3000F020
:102A20001DFF00214DF20C3000F018FFA6214DF2E1
:102A30000D3000F013FF00214DF20E3000F00EFFBC
:102A4000E5214DF20F3000F009FF01214DF2103069
:102A500000F004FF13214DF2113000F0FFFE0121C0
:102A60004DF2123000F0FAFE54214DF2133000F016
:102A7000F5FE01214DF2143000F0F0FE82214DF2FE
:102A8000153000F0EBFE01214DF2163000F0E6FEAD
:102A9000CA214DF2173000F0E1FE02214DF218304C
:102AA00000F0DCFE00214DF2193000F0D7FE0221CB
:102AB0004DF21A3000F0D2FE01214DF21B3000F031
:102AC000CDFE02214DF21C3000F0C8FE34214DF243
:102AD0001D3000F0C3FE02214DF21E3000F0BEFE9C
:102AE00067214DF21F3000F0B9FE02214DF2203077
:102AF00000F0B4FE84214DF2213000F0AFFE02213F
:102B00004DF2223000F0AAFEA4214DF2233000F055
:102B1000A5FE02214DF2243000F0A0FEB7214DF2B7
:102B2000253000F09BFE02214DF2263000F096FE8B
:102B3000CF214DF2273000F091FE02214DF22830D6
:102B400000F08CFEDE214DF2293000F087FE0221DC
:102B50004DF22A3000F082FEF2214DF22B3000F0CF
:102B60007DFE02214DF22C3000F078FEFE214DF268
:102B70002D3000F073FE03214DF22E3000F06EFE7A
:102B800010214DF22F3000F069FE03214DF230305C
:102B900000F064FE33214DF2313000F05FFE03217E
:102BA0004DF2323000F05AFE6D214DF2333000F01C
:102BB00055FE00214FF4544000F050FE33214DF2F9
:102BC000014000F04BFE00214DF2024000F046FEB5
:102BD00034214DF2034000F041FE00214DF204404B
:102BE00000F03CFE3A214DF2054000F037FE002196
:102BF0004DF2064000F032FE4A214DF2074000F04F
:102C00002DFE00214DF2084000F028FE5C214DF21F
:102C1000094000F023FE00214DF20A4000F01EFEA4
:102C200081214DF20B4000F019FE00214DF20C40C5
:102C300000F014FEA6214DF20D4000F00FFE002121
:102C40004DF20E4000F00AFEE5214DF20F4000F07B
:102C500005FE01214DF2104000F000FE13214DF25F
:102C6000114000F0FBFD01214DF2124000F0F6FD95
:102C700054214DF2134000F0F1FD01214DF21440BA
:102C800000F0ECFD82214DF2154000F0E7FD01213E
:102C90004DF2164000F0E2FDCA214DF2174000F05F
:102CA000DDFD02214DF2184000F0D8FD00214DF26B
:102CB000194000F0D3FD02214DF21A4000F0CEFD84
:102CC00001214DF21B4000F0C9FD00E003E30221A9
:102CD0004DF21C4000F0C2FD34214DF21D4000F0C9
:102CE000BDFD02214DF21E4000F0B8FD67214DF2FE
:102CF0001F4000F0B3FD02214DF2204000F0AEFD78
:102D000084214DF2214000F0A9FD02214DF2224024
:102D100000F0A4FDA4214DF2234000F09FFD02210C
:102D20004DF2244000F09AFDB7214DF2254000F00D
:102D300095FD02214DF2264000F090FDCF214DF28D
:102D4000274000F08BFD02214DF2284000F086FD67
:102D5000DE214DF2294000F081FD02214DF22A4092
:102D600000F07CFDF2214DF22B4000F077FD0221B6
:102D70004DF22C4000F072FDFE214DF22D4000F08E
:102D80006DFD03214DF22E4000F068FD10214DF243
:102D90002F4000F063FD03214DF2304000F05EFD56
:102DA00033214DF2314000F059FD03214DF2324004
:102DB00000F054FD6D214DF2334000F04FFD002135
:102DC0004FF4554000F04AFD33214DF2015000F020
:102DD00045FD00214DF2025000F040FD34214DF23E
:102DE000035000F03BFD00214DF2045000F036FD91
:102DF0003A214DF2055000F031FD00214DF2065010
:102E000000F02CFD4A214DF2075000F027FD002173
:102E10004DF2085000F022FD5C214DF2095000F007
:102E20001DFD00214DF20A5000F018FD81214DF2E8
:102E30000B5000F013FD00214DF20C5000F00EFD80
:102E4000A6214DF20D5000F009FD00214DF20E506B
:102E500000F004FDE5214DF20F5000F0FFFC0121D0
:102E60004DF2105000F0FAFC13214DF2115000F019
:102E7000F5FC01214DF2125000F0F0FC54214DF20E
:102E8000135000F0EBFC01214DF2145000F0E6FC71
:102E900082214DF2155000F0E1FC01214DF2165057
:102EA00000F0DCFCCA214DF2175000F0D7FC0221E3
:102EB0004DF2185000F0D2FC00214DF2195000F0F4
:102EC000CDFC02214DF21A5000F0C8FC01214DF258
:102ED0001B5000F0C3FC02214DF21C5000F0BEFC60
:102EE00034214DF21D5000F0B9FC02214DF21E506C
:102EF00000F0B4FC67214DF21F5000F0AFFC02213E
:102F00004DF2205000F0AAFC84214DF2215000F037
:102F1000A5FC02214DF2225000F0A0FCA4214DF2AC
:102F2000235000F09BFC02214DF2245000F096FC4F
:102F3000B7214DF2255000F091FC02214DF22650B0
:102F400000F08CFCCF214DF2275000F087FC0221CD
:102F50004DF2285000F082FCDE214DF2295000F0A5
:102F60007DFC02214DF22A5000F078FCF2214DF256
:102F70002B5000F073FC02214DF22C5000F06EFC3F
:102F8000FE214DF22D5000F069FC03214DF22E5030
:102F900000F064FC10214DF22F5000F05FFC032183
:102FA0004DF2305000F05AFC33214DF2315000F018
:102FB00055FC03214DF2325000F050FC6D214DF2D2
:102FC000335000F04BFC00214FF4564000F046FC1B
:102FD00033214DF2016000F041FC00214DF202600E
:102FE00000F03CFC34214DF2036000F037FC00217E
:102FF0004DF2046000F032FC3A214DF2056000F021
:103000002DFC00214DF2066000F028FC4A214DF213
:10301000076000F023FC00214DF2086000F01EFC68
:103020005C214DF2096000F019FC00214DF20A60AC
:1030300000F014FC81214DF20B6000F00FFC002128
:103040004DF20C6000F00AFCA6214DF20D6000F07C
:1030500005FC00214DF20E6000F000FCE5214DF270
:103060000F6000F0FBFB01214DF2106000F0F6FB59
:1030700013214DF2116000F0F1FB01214DF21260BD
:1030800000F0ECFB54214DF2136000F0E7FB01214E
:103090004DF2146000F0E2FB82214DF2156000F069
:1030A000DDFB01214DF2166000F0D8FBCA214DF284
:1030B000176000F0D3FB02214DF2186000F0CEFB48
:1030C00000214DF2196000F0C9FB02214DF21A6097
:1030D00000F0C4FB01214DF21B6000F0BFFB022198
:1030E0004DF21C6000F0BAFB34214DF21D6000F07F
:1030F000B5FB02214DF21E6000F0B0FB67214DF2DE
:103100001F6000F0ABFB02214DF2206000F0A6FB37
:1031100084214DF2216000F0A1FB02214DF22260DA
:1031200000F09CFBA4214DF2236000F097FB0221EC
:103130004DF2246000F092FBB7214DF2256000F0C3
:103140008DFB02214DF2266000F088FBCF214DF26D
:10315000276000F083FB02214DF2286000F07EFB27
:10316000DE214DF2296000F079FB02214DF22A6048
:1031700000F074FBF2214DF22B6000F06FFB022196
:103180004DF22C6000F06AFBFE214DF22D6000F044
:1031900065FB03214DF22E6000F060FB10214DF223
:1031A0002F6000F05BFB03214DF2306000F056FB16
:1031B00033214DF2316000F051FB03214DF23260BA
:1031C00000F04CFB6D214DF2336000F047FB5521C0
:1031D0004FF4704000F042FBAA214FF2010000F0D2
:1031E0003DFB52214FF2020000F038FB08214FF264
:1031F000030000F033FB00214FF2040000F02EFB2F
:10320000CC214FF4314000F029FB00214BF201109A
:1032100000F024FB05214FF4364000F01FFB702125
:103220004FF4374000F01AFB70214BF2017000F0B0
:1032300015FB01214FF4384000F010FB03214BF641
:10324000010000F00BFB03214BF6020000F006FB2F
:1032500003214BF6030000F001FB02214FF43C4038
:1032600000F0FCFA00214BF6014000F0F7FA0021D3
:103270004BF6024000F0F2FAD0214FF4494000F042
:10328000EDFA02214CF6011000F0E8FA50214CF65C
:10329000021000F0E3FA50214CF6031000F0DEFAC1
:1032A00050214CF6041000F0D9FA00214FF454508C
:1032B00000F0D4FA55214FF4685000F0CFFA4FF4E3
:1032C000885000F0BBFA782001F036F84FF4245013
:1032D00000F0B4FABDE06548808841F66311884289
:1032E000F8D1E22000F0AAFA1D2000F0A1FA022095
:1032F00000F09EFA042000F09BFA642001F01CF814
:10330000E02000F09BFA012000F092FA0A2000F081
:10331000EDFFE02000F092FA032000F089FA0C2083
:1033200000F0E4FF012000F089FA0A2000F0DEFF3F
:10333000E62000F083FA2F2000F07AFAFF2000F058
:1033400077FAFF2000F074FAB02000F077FA20201E
:1033500000F06EFA002000F06BFA032000F068FA2B
:1033600040F21F3000F064FA012000F061FA40F2F0
:10337000DF1000F05DFA002000F05AFAB42000F0EF
:103380005DFA042000F054FA40F21F4000F050FAB9
:10339000002000F04DFA2E2000F04AFA002000F044
:1033A00047FA002000F044FA002000F041FA002023
:1033B00000F03EFAB62000F041FA022000F038FAA0
:1033C0004FF4037000F034FA002000F031FA1720B7
:1033D00000F02EFA152000F02BFA002000F028FA59
:1033E000002000F025FAF02000F028FA032000F079
:1033F0001FFA292000F022FAD02000F01FFA002046
:1034000000F016FABE2000F019FA052000F010FABC
:10341000FE2000F00DFA012000F00AFA002000F072
:1034200007FA002000F004FA002000F001FAB820AA
:1034300000F004FA032000F0FBF9012000F0F8F995
:10344000BA2000F0FBF9012000F0F2F9642000F04E
:103450001BF80020FDF734FC0120054908604FF6F9
:10346000FF70FDF713FC1FB000BD00001803002023
:103470008081214208B5034800880090BDF8000013
:1034800008BD00000008006C2DE9F0470446BE208E
:1034900000F0D4F9052000F0CBF9204601F0CBF87C
:1034A00007464FF066320C4B01F0D8F8054601F0A4
:1034B00095F81FFA80F9484600F0BAF9012000F0AB
:1034C000B7F9FF2000F0B4F9002000F0B1F90020B6
:1034D00000F0AEF9BDE8F0876666044070B50446BA
:1034E0000023002689488079012805D187488088F3
:1034F00041F66311884208D184488079F0B9834845
:10350000808841F66311884218D1082C15D2DFE873
:1035100004F00406080A0C0E101206240DE007241D
:103520000BE0042409E0052407E0012405E0002461
:1035300003E0032401E0022400BF00BF082C1CD2DA
:10354000DFE804F00406090C0F12151800BF14E0A0
:1035500043F0800311E043F040030EE043F0C0036A
:103560000BE043F0200308E043F0600305E043F084
:10357000A00302E043F0E00300BF00BF634880887F
:1035800045F21051884202D14FF4585600E03626D9
:103590005E48808849F24131884205D05B48808886
:1035A00047F28971884201D143F008031946304639
:1035B00000F054F95548808841F6631188421DD0C7
:1035C00003F0200068B1514800885049498888427A
:1035D00014DA4E48058840884C49088008464580E2
:1035E0000CE04A48008849494988884206DD474836
:1035F00005884088454908800846458043488088BA
:1036000045F21051884252D14049488900F016F9DC
:10361000002000F00DF93D494989491C88B200F0AD
:103620000DF9002000F004F938494989891C88B255
:1036300000F004F935490988491EC1F30F2000F054
:10364000F7F832494989C91C88B200F0F7F82F49C8
:103650000978491EC8B200F0EBF82C49888900F0BF
:10366000EDF8002000F0E4F828498989491C88B267
:1036700000F0E4F8002000F0DBF824498989891C77
:1036800088B200F0DBF821494988491EC1F30F20B8
:1036900000F0CEF81D498989C91C88B200F0CEF827
:1036A0001A498978491EC8B200F0C2F82DE01749BE
:1036B000488900F0C3F8002000F0BAF8002000F0BC
:1036C000B7F812490988491EC1F30F2000F0B0F87D
:1036D0000E490978491EC8B200F0AAF80B4988893A
:1036E00000F0ACF8002000F0A3F8002000F0A0F8F3
:1036F00006494988491EC1F30F2000F099F8034993
:103700008978491EC8B200F093F870BD18030020F4
:1037100000B502460B464548808841F66311884251
:1037200047D142488079A8B940480088401E801A95
:1037300082B23E49488900F081F8002000F078F814
:10374000002000F075F8101200F072F8D0B200F00E
:103750006FF816E03549488900F070F8101200F053
:1037600067F8D0B200F064F830490988491EC1F307
:103770000F2000F05DF82D490978491EC8B200F00D
:1037800057F82A49888900F059F8181200F050F8C3
:10379000D8B200F04DF825494988491EC1F30F20E1
:1037A00000F046F821498978491EC8B200F040F877
:1037B0003AE01E48808845F21051884220D11B49CA
:1037C000488900F03BF8101200F032F81749498997
:1037D000491C88B200F032F8D0B200F029F8134941
:1037E000888900F02BF8181200F022F80F49898917
:1037F000491C88B200F022F8D8B200F019F813E0A2
:103800000A49488900F01AF8101200F011F8D0B2F5
:1038100000F00EF80549888900F010F8181200F041
:1038200007F8D8B200F004F800BD0000180300202B
:1038300001490880704700000008006C01490880B9
:1038400070470000FE07006C0248008902490880AA
:103850007047000018030020FE07006C024A108029
:10386000921C118070470000FE07006C08B5012112
:10387000082000F0CFF82020ADF8000010208DF8CF
:10388000030003208DF8020069460A48FDF76DF930
:103890000121402000F0BEF82020ADF800001020EB
:1038A0008DF8030003208DF8020069460248FDF7F9
:1038B0005CF908BD000C01400018014000BFFEE7A4
:1038C0007047000070B5002100230F22C47804B3B4
:1038D000154C246804F4E064C4F5E064210AC1F1E5
:1038E0000403CA40447804FA03F184781440214365
:1038F00009010E4C0678A155047804F01F05012437
:10390000AC4005786D11AD0005F1E025C5F800412A
:1039100009E0047804F01F050124AC40044D06784A
:10392000761145F8264070BD0CED00E000E400E0A3
:1039300080E100E002490143024A11607047000043
:103940000000FA050CED00E02DE9F04F81460E462F
:10395000174600252AE0E9B24846FDF769F8824695
:10396000BAF10F0F21D105F11400C1B24846FDF79D
:103970005FF88346BBF10E0F16D1002410E0281D1E
:1039800000EB8400C1B24846FDF752F88046B8F11A
:103990000B0F02DD0020BDE8F08F07F80480641CE7
:1039A000042CECDB0120F6E700BF6D1CA6F118002B
:1039B000A842D0DA0020EEE7704700000146002060
:1039C000034A506820F440400843506070470000AC
:1039D0000010024029B1064A52690243044B5A6161
:1039E00004E0034A52698243014B5A617047000068
:1039F0000010024029B1064AD2690243044BDA6141
:103A000004E0034AD2698243014BDA617047000047
:103A10000010024029B1064A92690243044B9A61A0
:103A200004E0034A92698243014B9A6170470000A7
:103A30000010024029B1064AD2680243044BDA6002
:103A400004E0034AD2688243014BDA607047000009
:103A50000010024030B500210022002400232D4D2B
:103A60006D6805F00C0121B1042905D0082923D186
:103A700005E0294D056022E0274D05601FE0254D3A
:103A80006D6805F47012234D6D6805F480340225CD
:103A900005EB92421CB9214D554305600BE01D4DCD
:103AA0006D6805F400351DB11C4D5543056002E0FD
:103AB000194D5543056002E0174D056000BF00BF7A
:103AC000144D6D6805F0F0010909154D6B5C056832
:103AD000DD4045600F4D6D6805F4E061090A104D49
:103AE0006B5C4568DD4085600A4D6D6805F460518A
:103AF000C90A0B4D6B5C4568DD40C560054D6D68BE
:103B000005F44041890B074D6B5CC568B5FBF3F5C7
:103B1000056130BD0010024000127A0000093D002E
:103B20002000002030000020704710B500F002F89F
:103B300010BD00000CB500200190009033480068D3
:103B400040F480303149086000BF3048006800F41C
:103B5000003000900198401C0190009818B901981D
:103B6000B0F5A06FF1D12948006800F4003010B121
:103B70000120009001E0002000900098012843D12E
:103B80002348006840F0100021490860084600689A
:103B900020F0030008600846006840F0020008605A
:103BA0001A48406819494860084640684860084615
:103BB000406840F4806048600846406820F47C100B
:103BC00048600846406840F4E810486008460068CD
:103BD00040F08070086000BF0C48006800F0007082
:103BE0000028F9D00948406820F0030007494860E0
:103BF0000846406840F00200486000BF0348406843
:103C000000F00C000828F9D10CBD000000100240A3
:103C100000200240042808D14FF0E021096941F05A
:103C200004014FF0E022116107E04FF0E021096943
:103C300021F004014FF0E02211617047704700004D
:103C400010B51348006840F00100114908600846AB
:103C50004068104908400E494860084600680E490F
:103C600008400B4908600846006820F4802008607E
:103C70000846406820F4FE0048604FF41F0088604A
:103C8000FFF753FF4FF000600449086010BD0000CB
:103C9000001002400000FFF8FFFFF6FE08ED00E014
:103CA00010B50121084800F022F801280BD10121AC
:103CB000054800F00DF80548006820B100F0B0F8A4
:103CC00000200249086010BD0008004004000020E8
:103CD000CA430282704721B1028842F00102028089
:103CE00004E002884FF6FE731A400280704730B538
:103CF0000246002000230024158A05EA0103958965
:103D000005EA010413B10CB1012000E0002030BD30
:103D100082884FF68F731A40828082880A4382809D
:103D200070470000002202881D4B98420ED01D4BA8
:103D300098420BD0B0F1804F08D01B4B984205D071
:103D40001A4B984202D01A4B984204D14FF68F7307
:103D50001A404B881A43174B984207D0164B98428B
:103D600004D04FF6FF431A40CB881A4302808B8859
:103D700083850B8803850A4B98420BD0094B9842E8
:103D800008D00E4B984205D00D4B984202D00D4BF7
:103D9000984201D10B7A0386012383827047000089
:103DA000002C0140003401400004004000080040A5
:103DB000000C004000100040001400400040014092
:103DC000004401400048014010B540211048FCF774
:103DD00057FF0F48006820F070400D490860084602
:103DE000006840F04050086080210948FCF748FF17
:103DF000022000F00FF840210548FCF743FF0220A5
:103E000000F008F840210248FCF73AFF10BD00001E
:103E1000000C014001E000BF401E0028FBD17047AC
:103E200010B500F01FF8802000F06AF8FFF7CCFF13
:103E300000F03EF810BD000008B501210820FFF792
:103E4000E9FDC020ADF8000010208DF8030003202C
:103E50008DF8020069460248FCF787FE08BD0000A5
:103E6000000C014010B51148006820F070400F4967
:103E700008600846006840F04050086040210B4848
:103E8000FCF700FF80210948FCF7FCFE0220FFF749
:103E9000C1FF80210548FCF7F3FE0220FFF7BAFFBF
:103EA00040210248FCF7ECFE10BD0000000C014070
:103EB00010B51248006820F07040104908600846AC
:103EC000006840F04050086040210C48FCF7D8FEE4
:103ED0000220FFF79FFF80210848FCF7D1FE022057
:103EE000FFF798FF40210548FCF7CCFE0220FFF7C2
:103EF00091FF80210148FCF7C5FE10BD000C014078
:103F000070B504461648006820F0704014490860F7
:103F10000846006840F04050086000251CE0402141
:103F20000F48FCF7ADFE04F0010020B180210C48E1
:103F3000FCF7A8FE03E080210948FCF7A1FE03205E
:103F4000FFF768FF641040210548FCF79BFE032043
:103F5000FFF760FF681CC5B2082DE0DB70BD0000F4
:103F6000000C014010B540F225511D4800F04AF800
:103F700010B31B4800F002F9C4B21A48008800F4DC
:103F80000040C8B91748008800F4804060B10A2C8E
:103F900003D000201349088020E01248008840F434
:103FA00000401049088019E00D2C06D10D4800880A
:103FB00040F480400B49088010E00A480088C0F3B4
:103FC0000D0009490C5407480088401C0549088029
:103FD00008460088C72801DD0020088010BD0000C9
:103FE000003801403C0000205002002021B18289AD
:103FF00042F40052828104E082894DF6FF731A4038
:104000008281704770B502460024002300250020FD
:1040100040F66A16B14200D100BFC1F3421501F06B
:104020001F03012606FA03F3012D02D196893340BE
:1040300006E0022D02D1168A334001E0968A334011
:104040000C12012606FA04F41688344013B10CB1A0
:10405000012000E0002070BDF0B5034600240026DA
:104060000025002040F66A17B94200D100BF18466B
:10407000C1F3421401F01F06012707FA06F5012CCF
:1040800001D10C3004E0022C01D1103000E01430DA
:104090001AB107682F43076002E00768AF43076063
:1040A000F0BD00002DE9F04786B005460E4600241D
:1040B000A24600BFA1460027B08900B100BF2F462D
:1040C0002C8A4CF6FF700440F08804432C82AC89A3
:1040D0004EF6F3100440B0883189084371890843D3
:1040E0000443AC81AC8A4FF6FF400440B0890443DE
:1040F000AC8201A8FFF7AEFC1F48874202D1DDF871
:1041000010A001E0DDF80CA0A88900F4004040B147
:104110000AEBCA0000EB0A1031684900B0FBF1F865
:1041200007E00AEBCA0000EB0A1031688900B0FB17
:10413000F1F86420B8FBF0F004012009642101FBD0
:104140001089A88900F4004040B1322000EBC9007A
:10415000B0FBF1F000F00700044308E0322000EB70
:1041600009106421B0FBF1F000F00F0004432C8132
:1041700006B0BDE8F087000000380140014688889D
:10418000C0F30800704700BFFEE700BF70470000A3
:1041900000B585B001214802FFF73CFC4FF4004018
:1041A000FFF70CFC1D48FCF7B7F9002000908DF8D4
:1041B00005008DF804004FF40020029000200390C9
:1041C00001208DF8100069461448FCF709FA012314
:1041D0001A4619461148FCF72BFA01210F48FCF743
:1041E00090F901210D48FCF781F90C48FCF77CFAA5
:1041F00000BF0A48FCF7EAF90028FAD10748FCF7A3
:1042000078FA00BF0548FCF7D7F90028FAD1012158
:104210000248FCF7AFF905B000BD000000240140E2
:104220003EB505460C4601210220FFF7E3FB681E60
:1042300080B2ADF80400601E80B2ADF8000000202E
:10424000ADF80600ADF8020069460648FFF76AFDC2
:1042500020210448FFF75CFD01210248FFF73BFDE8
:104260003EBD00000004004010B54FF4A060FFF711
:1042700061FB4FF4165000F061F9FFF7DDFDFFF729
:10428000CFFD00F011F8FCF781F9FFF7EFFA4FF4DA
:104290007A714FF46160FFF7C3FFFFF779FF00F019
:1042A0001BF9FCF7A5FD10BD10B56FF00400FFF77A
:1042B000B1FC0A4800680A49B0FBF1F009490870EE
:1042C0000846007800EB4001C1EBC0104FF6FF71CB
:1042D00001EAC0000449088010BD00000C00002065
:1042E00000127A0034000020360000200146114AF6
:1042F00012884A434FF0E0235A6100229A611A461D
:10430000126942F001021A6100BF4FF0E022106909
:1043100000F001021AB100F48032002AF5D04FF00B
:10432000E022126922F001024FF0E0231A6100221C
:104330009A617047360000200146114A12784A43BC
:104340004FF0E0235A6100229A611A46126942F046
:1043500001021A6100BF4FF0E022106900F0010273
:104360001AB100F48032002AF5D04FF0E022126931
:1043700022F001024FF0E0231A6100229A61704797
:104380003400002000BF054A128802F04002002AD3
:10439000F9D0C2B2014B1B1D1A8070470038014092
:1043A00008B5FFF761FF53E02A48007810B10020FC
:1043B00028490870002408E0274931F81400FCF768
:1043C0009DF926490855601C84B2302CF4DB244A40
:1043D00030212248FFF7B8FA0546002D35D0204895
:1043E000C07800901E488378427801781DA0FBF7C2
:1043F00017FF2448006808B1FCF796FA18480078BF
:104400000A2801D1012000E00020154949780A2935
:1044100001D1012100E000210843114989780A29CE
:1044200001D1012100E0002108430D49C9780A2982
:1044300001D1012100E00021084348B120211248A8
:10444000FCF720FCFFF7ECFC02E010A0FBF7E8FE15
:10445000AAE700000900002040000020A000002082
:1044600000000020466F756E64206F6E65207061DD
:10447000636B65743A20256420256420256420251B
:10448000640A000004000020000C01404E6F2076FA
:10449000616C6964207061636B657420666F756E12
:1044A000642E0A0008B50B208DF8000002208DF85C
:1044B000010001208DF802008DF803006846FFF727
:1044C00001FA0220FCF732F9012202210148FCF72F
:1044D00003FA08BD0800024000B58BB00121084670
:1044E000FFF778FA1248FCF73BF91248009012489F
:1044F0000190002002903020039000200490802042
:10450000059040000690800007902020089000024F
:10451000099000200A9069460548FCF7E6F9012158
:104520000348FCF711F9FFF7BDFF0BB000BD000019
:10453000080002404C2401404000002010B586B025
:104540000446012144F20400FFF764FA4FF40070BE
:10455000ADF8140003208DF8160018208DF8170010
:1045600005A91C48FCF701FB4FF48060ADF814006E
:1045700004208DF8170005A91648FCF7F6FA252047
:104580008DF8000003208DF801008DF80200012055
:104590008DF803006846FFF795F901940020ADF807
:1045A0000800ADF80A00ADF80C00ADF810000C20C2
:1045B000ADF80E0001A90848FFF774FD012240F292
:1045C00025510548FFF748FD01210348FFF70EFD7F
:1045D00006B010BD00080140003801404FEA1153F9
:1045E000A3F58063D3F11E03A8BFD3F1200C08DB31
:1045F0004FF0004242EAC12252EA505232FA03F02E
:10460000704709420BD4102BC4BF0020704703F53C
:10461000787CBCF1FF3F05D04FF0FF3070474FF082
:104620000000704770B500F0C3F800BF49922480C5
:1046300000207047F0E7B0FA80F310FA03F10AD0D7
:10464000C3F11D0303F580634FEA41504FEA035263
:1046500002EBD12170474FF000007047DFF848C1EE
:1046600070B51CEA111E1EBF1CEA13159EEA0C0F42
:1046700095EA0C0F00F06F8081EA030423EA4C13E3
:104680004EEAD47E21EA4C1141F4801143F48013A8
:10469000AE44A1FB024CA0FB0365AEF17F7E361950
:1046A00055EB0C05A1FB034C4CF10003A0FB021CD5
:1046B00016EB0C06654153F10003094218BF46F0A2
:1046C000010613F4007F0BD14FEA03314FEA0530A6
:1046D000340341EA155140EA16506FF003020AE034
:1046E0004FEAC3214FEAC520F40241EA555140EA9E
:1046F00056506FF0020202EB2E4201EB025585EAA2
:10470000CE710AD05FEA440C18BF24F0004450F187
:10471000000041F1000120EAD47040F2FE7C6245C5
:1047200000D270BDA84214BF4FF080444FF0404407
:10473000002E08BF0024BEF1806FA8BFA1F1C041C8
:10474000BDE8704080F282804FF0000001F1C0416E
:1047500001F0004170479EEA0C0F0CEA131518BFD8
:1047600095EA0C0F06D04FF0000081EA030E0EF020
:10477000004170BD00F01CF88900013E00F007B850
:1047800000F009B84FEA430C5FEA5C5C08D081EAAC
:10479000030100F05BB84FEA410C5FEA5C5CF6D1C4
:1047A0004FF00000014970470000FF070000F87F4C
:1047B0000EF1020E2EF0030E5EF8046B364205D4A5
:1047C000012A43EB030515F5001F12D8012841EB20
:1047D000010C1CF5001F0CD80ED14FEAD17C15F549
:1047E000001F0CEB4C0C0CF1020C08BF4CEBD37C03
:1047F00004E04FF0080C01E04FEAD37C0CEB4C05D1
:1048000026FA05F606F00706B6F1040C06D20EEB02
:10481000860CBDE870404CF0010C6047DFE80CF0FE
:10482000090B02024FF000414FF00000A1F50021FA
:1048300070BD19461046012851EB010418BFD4F58C
:10484000001484BF002001F0004170BD0808A0F5ED
:1048500000114FEA31017047303132333435363789
:1048600038394142434445464030580030313233B4
:1048700034353637383961626364656640307800B4
:10488000A048000800000020400000006C01000863
:10489000E0480008400000204809000088010008A6
:1048A00000000000010000000000000000A24A0417
:1048B00000000000000000000102030406070809D0
:1048C00000000000010203040102030406070809B6
:1048D00002040608000000000000000000000000C4
:0400000508000131BD
:00000001FF
